:020000040800F2
:1000000048090020D5060008C1030008C303000802
:10001000C7030008CB030008CF030008000000005E
:10002000000000000000000000000000D3030008F2
:10003000D503000800000000D7030008ED06000803
:10004000EF060008EF060008EF060008EF060008BC
:10005000EF060008EF060008EF060008EF060008AC
:10006000EF060008EF060008EF060008EF0600089C
:10007000EF060008EF060008EF060008EF0600088C
:10008000EF060008EF060008EF060008EF0600087C
:10009000EF060008EF060008EF060008EF0600086C
:1000A000EF060008EF060008EF060008EF0600085C
:1000B000EF060008EF060008EF060008EF0600084C
:1000C000EF060008EF060008EF060008EF0600083C
:1000D000EF0600083115000813160008EF060008A7
:1000E000EF060008EF060008EF06000800F002F82F
:1000F00000F061F80AA090E8000C82448344AAF161
:100100000107DA4501D100F056F8AFF2090EBAE85E
:100110000F0013F0010F18BFFB1A43F0010318473B
:10012000EC2700000C2800000A444FF0000C10F8E7
:10013000013B13F0070408BF10F8014B1D1108BF65
:1001400010F8015B641E05D010F8016B641E01F805
:10015000016BF9D113F0080F1EBF10F8014BAD1C55
:100160000C1B09D16D1E58BF01F801CBFAD505E073
:1001700014F8016B01F8016B6D1EF9D59142D6D3CD
:10018000704700000023002400250026103A28BFF5
:1001900078C1FBD8520728BF30C148BF0B607047F9
:1001A000642901F05B85002070471FB501F095FFC1
:1001B0001FBD10B510BD01F01FFE1146FFF7F5FF82
:1001C00000F008F801F03DFE03B4FFF7F2FF03BCB6
:1001D00001F008F908B500F0E3F901F09BF801F02F
:1001E00071FA01F022FC01F0F7FA01F0F5F84FF492
:1001F000165001F00AF900F023FA4FF47A7001F07A
:10020000C0F84FF47A7001F0BCF800F019FABEE0C3
:1002100000F01CFA5E480068E8B30322002108469B
:1002200001F099FB0A225B495948006801F00BFA7A
:10023000594908600846006801F0CAF90022032104
:10024000104601F088FB01220321122001F083FBFC
:1002500052A20321242001F063FB4D48006842F2C2
:100260001071B0FBF1F201FB12004FF47A71B0FB98
:10027000F1F000F128040A23009301232246032110
:10028000282001F009FB46A20321332001F048FB9E
:100290003F48006800E073E04FF47A71B0FBF1F280
:1002A00001FB12006421B0FBF1F000F128040A23E5
:1002B0000093012322460321342001F0EDFA344853
:1002C00000686421B0FBF1F201FB12000A21B0FBCF
:1002D000F1F000F1280401232246009103213E2081
:1002E00001F0DAFA2A4800680A21B0FBF1F201FBBA
:1002F000120000F128040123224600910321482026
:1003000001F0CAFA27A20321532001F009FB0022C1
:100310000621104601F01FFB02220621122001F0E7
:100320001AFB1EA20621242001F0FAFA0A230093E8
:10033000012302220621282001F0AEFA0A230093AD
:10034000012300220621332001F0A6FA16A206217D
:100350003E2001F0E5FA0A220E490D48006801F03E
:1003600072F90D4908600846006801F031F9084843
:1003700000680E4908604FF47A7001F002F801E05D
:1003800001F02AFA0248016809A001F025FC3FE7C4
:1003900028000020D0010020000000203D000000C7
:1003A0002E0000004B670000250000000400002024
:1003B000BEBBD6D8C1BF203D20256420670D0A00F2
:1003C000704700BFFEE700BFFEE700BFFEE700BFCB
:1003D000FEE770477047704700210020674A1268A7
:1003E00042F48032654B1A6000BF644A126802F41E
:1003F0000030491C10B9B1F5A06FF6D15F4A126800
:1004000012F4003F01D0012000E00020012842D179
:100410005B4A126842F01002594B1A601A46126881
:1004200022F003021A601A46126842F002021A60B1
:10043000524A5268514B5A601A4652685A601A46DC
:10044000526842F480625A601A46526822F47C1262
:100450005A601A46526842F4E8125A601A46126804
:1004600042F080721A6000BF444A126812F0007FA6
:10047000FAD0424A526822F00302404B5A601A46B0
:10048000526842F002025A6000BF3C4A526802F0D1
:100490000C02082AF9D1704710B5FFF79DFF10BD77
:1004A00010B53648006840F001003449086008463D
:1004B000406834490840314948600846006832497C
:1004C00008402E4908600846006820F48020086033
:1004D0000846406820F4FE0048604FF41F00886022
:1004E000FFF7DAFF4FF000602849086010BD10B533
:1004F000002100200022214B5B6803F00C0121B198
:10050000042906D0082928D107E0214B214C23607B
:1005100027E01F4B1F4C236023E0184B5B6803F45C
:100520007010164B5B6803F48032022303EB90409B
:1005300022B9194B4343174C23600DE00F4B5B6806
:1005400013F4003F04D0144B4343124C236003E0E8
:100550000F4B43430F4C236003E00D4B0D4C2360C6
:1005600000BF00BF054B5B68C3F303130B4CE15C9A
:10057000084B1B68CB40074C236010BD00100240A5
:10058000002002400000FFF8FFFFF6FE08ED00E04B
:1005900000127A000800002000093D000C00002035
:1005A00008B50121082000F044FC0120ADF800004E
:1005B00010208DF8030003208DF8020069463C48A6
:1005C00000F084F90220ADF8000048208DF8030007
:1005D0006946374800F07AF908BD70B50020354902
:1005E000086004464FF0010000F0A8FE00BF32484A
:1005F00000680028FBD1054613E001202D49086062
:100600004FEA440400F09AFE00202C49C1F8800112
:100610002948006800B1641C012000F08FFE681CAE
:10062000C5B2182DE9DB01202249086084F40004DA
:1006300000F084FE00202149C1F88001204670BDF1
:1006400010B5FFF7CAFF1E49086010BD70B5FFF76F
:10065000C4FF1C49086008460068194909688842B7
:1006600022D91848006818490860084600681449EB
:100670000968401A144908600846006801F0D4FC73
:100680000446124901F0EEFB114908600E4800686B
:1006900001F0CAFC05460D4901F0E4FB044601F0F7
:1006A000A3FC0949086002E000200749086070BD0A
:1006B000000C0140808121420481214200802142BE
:1006C0002400002020000020280000200040534487
:1006D0002C0000200948804709480047FEE7FEE754
:1006E000FEE7FEE7FEE7FEE7FEE7FEE7FEE7FEE7E2
:1006F00004480549054A064B70470000A10400085C
:10070000ED000008480300204809002048050020AB
:100710004805002036490143364A1160704770B5DC
:10072000002100230F22C4784CB3324C246804F417
:10073000E064C4F5E0644FEA1421C1F1040322FA35
:1007400001F2447804FA03F1847804EA020444EAEA
:1007500001014FEA0111284C0678A155047804F0F4
:100760001F054FF0010404FA05F405784FEA6515FA
:100770004FF0E02606EB8505C5F8004109E0047856
:1007800004F01F050124AC401C4D0678761145F895
:10079000264070BD1A4A0A4002431A4B1A6070473D
:1007A00041B1194A126842EA00024FF0E023C3F84F
:1007B000102D07E0144A126822EA00024FF0E023ED
:1007C000C3F8102D7047042808D14FF0E0210969C3
:1007D00041F004014FF0E022116107E04FF0E02109
:1007E000096921F004014FF0E02211617047000017
:1007F0000000FA050CED00E000E400E080E100E01C
:1008000080FFFF1F08ED00E010ED00E010B504468A
:10081000CA48844208D10121042000F024FB0021B1
:10082000042000F020FB46E0C548844208D10121A5
:10083000082000F018FB0021082000F014FB3AE02B
:10084000C048844208D10121102000F00CFB002197
:10085000102000F008FB2EE0BB48844208D10121A3
:10086000202000F000FB0021202000F0FCFA22E014
:10087000B648844208D10121402000F0F4FA00215A
:10088000402000F0F0FA16E0B148844208D101217E
:10089000802000F0E8FA0021802000F0E4FA0AE06D
:1008A000AC48844207D10121801500F0DCFA002118
:1008B000A01500F0D8FA10BD10B50121084600F0CF
:1008C000D2FA0021012000F0CEFA10BD2DE9F0414E
:1008D000024600250026002000230024002791F86E
:1008E00003C00CF00F0591F803C01CF0100F03D0EB
:1008F00091F802C04CEA0505B1F800C01CF0FF0FEA
:1009000031D0146800202BE04FF0010C0CFA00F3FA
:10091000B1F800C00CEA03069E4220D183004FF0DC
:100920000F0C0CFA03F7BC4305FA03FC4CEA040471
:1009300091F803C0BCF1280F06D14FF0010C0CFA5E
:1009400000FCC2F814C00AE091F803C0BCF1480FE3
:1009500005D14FF0010C0CFA00FCC2F810C0401C8D
:100960000828D1D31460B1F800C0BCF1FF0F34DD0A
:10097000546800202EE000F1080C4FF0010808FA3E
:100980000CF3B1F800C00CEA03069E4221D18300AB
:100990004FF00F0C0CFA03F7BC4305FA03FC4CEACA
:1009A000040491F803C0BCF1280F05D100F1080C34
:1009B00008FA0CF8C2F8148091F803C0BCF1480F93
:1009C00007D100F1080C4FF0010808FA0CF8C2F842
:1009D0001080401C0828CED35460BDE8F0814FF64B
:1009E000FF710180022181700421C17070470246AD
:1009F000002093680B4201D0012000E000207047E6
:100A00000146886880B2704702460020D3680B42D6
:100A100001D0012000E0002070470146C86880B284
:100A2000704701617047416170470AB1016100E0A0
:100A300041617047C16070474FF480320A43826160
:100A40008161826182698269704702460020424B5F
:100A500018684FF68073184040EA021008433E4B76
:100A6000186070473D49C8617047F0B50A460023D9
:100A700000240021002500F00046B6F1004F02D10D
:100A8000354EF16901E0344E7168C0F3034583B21D
:100A900000F44016B6F5401F08D121F070612E4ECB
:100AA000766826F070662C4F7E6012E000F48016A7
:100AB000B6F5801F06D1032606FA05F4A14341F0DE
:100AC000706106E0460D360103FA06F6B14341F0C7
:100AD000706122B1460D360103FA06F6314300F08B
:100AE0000046B6F1004F02D11B4EF16101E01A4EF3
:100AF0007160F0BD30B500228B071C0F0F2303FA85
:100B000004F2154B08338C1053F824309343124CE5
:100B100008348D1044F8253023468C1053F82430C7
:100B20008C07240F00FA04F423430B4C08348D1077
:100B300044F8253030BD0A4908607047000801407C
:100B4000000C014000100140001401400018014059
:100B5000001C014000200140000001400000204234
:100B6000DC002042DB48006840F00100D949086001
:100B700008464068D8490840D64948600846006899
:100B8000D6490840D34908600846006820F4802010
:100B900008600846406820F4FE0048604FF41F00DB
:100BA00088607047CB49096821F48031C94A1160D7
:100BB0001146096821F480211160B0F5803F03D00F
:100BC000B0F5802F0ED106E0C249096841F48031AA
:100BD000C04A116007E0BF49096841F4A021BD4A3D
:100BE000116000E000BF00BF704710B50146002251
:100BF000002300204A11012A02D1B64C236806E0E6
:100C0000022A02D1B34C236A01E0B24C636A01F0BC
:100C10001F02012494401C4201D0012000E000206A
:100C200010BD70B500240025002600BF3120FFF75D
:100C3000DCFF0646641CB4F5A06F01D0002EF5D091
:100C40003120FFF7D2FF08B1012500E0002528463A
:100C500070BD014600209F4A106820F0F80040EA6D
:100C6000C100106070479E4908607047024600202E
:100C7000984B586820F47C1042EA01031843954BC6
:100C80005860704796490866704701460020914AAF
:100C9000506820F003000843506070478D4840685A
:100CA00000F00C007047014600208A4A506820F08E
:100CB000F00008435060704701460020854A5068A4
:100CC00020F4E06008435060704701460020814AEC
:100CD000506820F4605040EAC1005060704729B16C
:100CE0007C4A527A02437B4B5A7206E0794A527A26
:100CF000C343DBB21A40774B5A7270477949086098
:100D0000704701460020734A506820F44040084371
:100D1000506070470021744A11706E4A82F82010AA
:100D2000012802D0042808D103E001216E4A117085
:100D300004E005216C4A117000E000BF00BF70475D
:100D40006A49086070476349096A0143614A116250
:100D5000704767490860704730B5002100220024C1
:100D600000235C4D6D6805F00C0121B1042905D00C
:100D7000082923D105E05F4D056022E05D4D056047
:100D80001FE0544D6D6805F47012524D6D6805F406
:100D90008034022505EB92421CB9574D554305603E
:100DA0000BE04C4D6D6815F4003F03D0524D554398
:100DB000056002E04F4D5543056002E04D4D056072
:100DC00000BF00BF434D6D6805F0F00109094B4DB0
:100DD0006B5C0568DD4045603E4D6D6805F4E06183
:100DE000090A464D6B5C4568DD408560394D6D688C
:100DF00005F46051C90A414D6B5C4568DD40C56032
:100E0000344D6D6805F44041890B3D4D6B5CC56800
:100E1000B5FBF3F5056130BD29B12E4A5269024395
:100E20002C4B5A6104E02B4A52698243294B5A6188
:100E3000704729B1274A92690243264B9A6104E020
:100E4000244A92698243234B9A61704729B1214A0F
:100E5000D26902431F4BDA6104E01E4AD269824321
:100E60001C4BDA61704729B11A4AD2680243194B08
:100E7000DA6004E0174AD2688243164BDA607047A2
:100E800029B1144A12690243124B1A6104E0114A53
:100E9000126982430F4B1A6170471A490860704704
:100EA0000F49C86470470B49C87170470948406AC8
:100EB00040F0807007494862704701460020054AAB
:100EC00092680A4201D0012000E0002070470149E9
:100ED00088727047001002400000FFF8FFFFF6FE26
:100EE00000004242D80042422010024080044242A8
:100EF0003C04424200127A0000093D00300000200C
:100F0000400000204004424210B50446FC488442A0
:100F100009D101218803FFF7A6FF00214FF480408B
:100F2000FFF7A1FF32E0F748844209D101214804CC
:100F3000FFF7A6FF00214FF40030FFF7A1FF25E0E7
:100F4000F148844209D101218804FFF799FF00216B
:100F50004FF48020FFF794FF18E0EC48844209D159
:100F60000121C804FFF78CFF00214FF40020FFF798
:100F700087FF0BE0E648844208D101210805FFF70E
:100F80007FFF00214FF48010FFF77AFF10BD2DE99D
:100F9000F04786B005460E460024A24600BFA14693
:100FA0000027B08900B100BF2F462C8A4CF6FF7095
:100FB0000440F08804432C82AC894EF6F3100440C0
:100FC000B08831890843718908430443AC81AC8AF5
:100FD0004FF6FF400440B0890443AC8201A8FFF7FC
:100FE000BBFEC748874202D1DDF810A001E0DDF862
:100FF0000CA0A88910F4004F08D00AEBCA0000EB3F
:101000000A1031684900B0FBF1F807E00AEBCA00AA
:1010100000EB0A1031688900B0FBF1F86420B8FBDE
:10102000F0F004012009642101FB1089A88910F463
:10103000004F08D0322000EBC900B0FBF1F000F007
:101040000700044308E0322000EB09106421B0FBE4
:10105000F1F000F00F0004432C8106B0BDE8F087EA
:101060004FF41651016000218180C18001810C2163
:10107000418100218181704710B502460020108A0D
:101080004FF2FF0318400B884C8823438C8823437E
:10109000CC8823431843108210BD00210180418079
:1010A0008180C180704721B1828942F400528281DF
:1010B00004E082894DF6FF731A4082817047F0B5D3
:1010C00003460024002600250020A1F510676A3F92
:1010D00000D100BF1846C1F3421401F01F060127DA
:1010E00007FA06F5012C01D10C3004E0022C01D1E5
:1010F000103000E014301AB107682F43076002E097
:101100000768AF430760F0BD10B51AB1838A0B437F
:10111000838204E0838ACC43A4B22340838210BD3F
:10112000028A4FF6F0731A400282028A0A43028250
:10113000704782894FF2FF731A40828182890A4385
:101140008281704721B1828942F00202828104E0EB
:1011500082894FF6FD731A4082817047028A4FF6EA
:10116000DF731A400282028A0A430282704721B169
:10117000028A42F48042028204E0028A4BF6FF7344
:101180001A4002827047C1F308028280704701460C
:101190008888C0F308007047818941F0010181818E
:1011A0007047028BD2B20283028B42EA0122028391
:1011B0007047028B02F47F420283028B0A43028350
:1011C000704721B1828A42F02002828204E0828A42
:1011D0004FF6DF731A408282704721B1828A42F053
:1011E0001002828204E0828A4FF6EF731A408282F4
:1011F000704721B1828A42F00802828204E0828A2A
:101200004FF6F7731A408282704721B1828942F407
:101210000042828103E08289C2F30E02828170471C
:1012200021B1828A42F40062828204E0828A4FF213
:10123000FF731A4082827047828A4FF6FB731A400E
:101240008282828A0A438282704721B1828A42F076
:101250000202828204E0828A4FF6FD731A40828283
:10126000704702460020B1F5007F00D100BF13880F
:101270000B4201D0012000E00020704701F4007211
:10128000B2F5007F00D100BFCA430280704770B53D
:1012900002460024002300250020A1F510666A3EC6
:1012A00000D100BFC1F3421501F01F03012606FA69
:1012B00003F3012D02D19689334006E0022D02D1BD
:1012C000168A334001E0968A33400C12012606FA52
:1012D00004F41688344013B10CB1012000E0002062
:1012E00070BD10B500220023A1F510646A3C00D146
:1012F00000BF0A1201249440A3B2DC43048010BD55
:10130000003801400044004000480040004C0040CC
:101310000050004010B56FF00400FFF754FA2A485F
:1013200000682A49B0FBF1F02949087008460078A6
:101330004FF47A7148432749088010BD0146244A7A
:1013400012784A434FF0E0235A6100229A611A460C
:10135000126942F001021A6100BF4FF0E0221069E9
:1013600010F0010F02D010F4803FF6D04FF0E022D1
:10137000126922F001024FF0E0231A6100229A6103
:1013800070470146134A12884A434FF0E0235A61DE
:1013900000229A611A46126942F001021A6100BFE6
:1013A0004FF0E022106910F0010F02D010F4803FDE
:1013B000F6D04FF0E022126922F001024FF0E02354
:1013C0001A6100229A6170470800002000127A001A
:1013D000440000204600002010B54FF4A060FFF745
:1013E00099F910BD014600BF704770B504460D461F
:1013F00000BF4021AC48FFF734FF0028F9D0E1B22C
:10140000A948FFF7C0FE204670BD10B586B004465F
:10141000012144F20400FFF70CFDA348FFF774FD1F
:101420004FF40070ADF8140003208DF8160018205A
:101430008DF8170005A99D48FFF748FA4FF4806022
:10144000ADF8140004208DF8170005A99748FFF7A0
:101450003DFA01210420FFF7ECFC01214804FFF7CD
:10146000F5FC0420ADF8140018208DF817000320B7
:101470008DF8160005A98D48FFF728FA0820ADF869
:10148000140004208DF8170005A98848FFF71EFAFC
:1014900001214804FFF7F4FC00214FF40030FFF76E
:1014A000EFFC01940020ADF80800ADF80A00ADF89B
:1014B0000C00ADF810000C20ADF80E0001A97C481E
:1014C000FFF765FD01A97848FFF761FD25208DF83C
:1014D000000003208DF801008DF8020001208DF836
:1014E00003006846FFF71BF9012240F225516E48C0
:1014F000FFF7E5FD26208DF8000003208DF80100A0
:101500008DF8020001208DF803006846FFF707F907
:10151000012240F225516648FFF7D1FD01216248C2
:10152000FFF7C1FD01216248FFF7BDFD06B010BD08
:1015300010B540F225515C48FFF7A9FE10B35A4898
:10154000FFF725FEC4B25B48008810F4004F2BD192
:101550005848008810F4804F0CD00A2C03D000208B
:101560005449088020E05348008840F40040514925
:10157000088019E00D2C06D14E48008840F48040C8
:101580004C49088010E04B480088C0F30D004A49E0
:101590000C5448480088401C46490880084600888A
:1015A000C72801DD0020088010BD10B504460BE0FF
:1015B00000BF40213C48FFF754FE0028F9D014F842
:1015C000011B3948FFF7DFFD20780028F0D110BD5E
:1015D00010B504460BE000BF40213548FFF741FE3F
:1015E0000028F9D014F8011B3148FFF7CCFD207812
:1015F0000028F0D110BDF8B5044600946E460025D1
:1016000004E03046FFF7E4FF681CC5B2042DF8DBA8
:10161000F8BD10B540F225512548FFF738FE88B1D6
:101620002348FFF7B4FD2549254A127888542448F9
:101630000078401C2249087008460078322801DDF5
:101640000020087010BDF0B503460D461646002771
:1016500029460A2E03D0002008702846F0BD33B971
:10166000302001F8010B002008702846F6E7002B17
:1016700003DA2D2001F8010B5B4242F210720DE0FB
:1016800093FBF2F404B937B104F1300001F8010B17
:1016900004FB123301270A2092FBF0F2002AEFDC50
:1016A000002008702846D9E70038014000080140B2
:1016B0000044004048000020EE010020B602002057
:1016C0004A00002008B501210420FFF7B2FB0220E8
:1016D000ADF8000010208DF8030003208DF8020003
:1016E00069460448FFF7F2F802210248FFF799F92A
:1016F00008BD00000008014070B504460E462EB13A
:101700004FF40051FF48FFF78CF904E04FF400510B
:10171000FC48FFF788F90221FB48FFF784F9002510
:101720001BE04FF48071F748FFF77DF914F0800F4C
:1017300005D04FF48061F348FFF773F904E04FF4EC
:101740008061F048FFF76FF94FF48071ED48FFF7C3
:1017500068F96006040E681CC5B2082DE1DB0221A1
:10176000E948FFF75EF94FF40051E648FFF759F9F1
:1017700070BD70B504460D4605F1B001C8B2002138
:10178000FFF7BAFF210941F010000021FFF7B4FF75
:1017900004F00F0141F001000021FFF7ADFF70BD23
:1017A00010B500218D20FFF7A7FF00211420FFF7BF
:1017B000A3FF0021AF20FFF79FFF10BD10B5002150
:1017C0008D20FFF799FF00211020FFF795FF0021E2
:1017D000AE20FFF791FF10BD70B5002419E004F1B1
:1017E000B001C8B20021FFF787FF00210846FFF7CC
:1017F00083FF00211020FFF77FFF002505E0012176
:101800000020FFF779FF681CC5B2802DF7DB601C54
:10181000C4B2082CE3DB70BD2DE9F04107460E464B
:10182000904600250024A8F12000C5B27F2F02DDDC
:101830000027B01CC6B231463846FFF79AFF002495
:1018400008E004EB0511B14A505C0121FFF754FF99
:10185000601CC4B2082CF4DB701CC1B23846FFF720
:1018600088FF002409E004EB05110831A74A505C09
:101870000121FFF741FF601CC4B2082CF3DBBDE877
:10188000F08110B50246012000E050430B00A1F1A9
:101890000104E1B2F9D110BD2DE9FF5F0746914681
:1018A0001D460E9E4FF0000A002435E0281B401E06
:1018B000C1B20A20FFF7E5FFB9FBF0F00A21B0FB47
:1018C000F1F201FB120000F0FF08BAF1000F13D192
:1018D000681EA04210DDB8F1000F0BD1B34606EB35
:1018E000D671491001FB0471C8B220220199FFF79B
:1018F00093FF0FE04FF0010AB34606EBD671491093
:1019000001FB0471C8B208F13001CAB20199FFF7B6
:1019100083FF00BF601CC4B2AC42C7DBBDE8FF9FC1
:101920002DE9F04104460F46154600260EE0AA5D5B
:1019300039462046FFF770FF04F10800C4B2782C46
:1019400002DD0024B81CC7B2701CC6B2A85D002816
:10195000EDD1BDE8F0812DE9F04180460E461546F7
:10196000002731464046FFF704FF00240AE0684A9A
:1019700002EB8511085D0121FFF7BEFE781CC7B29E
:10198000601CC4B2102CF2DB701CC1B24046FFF7E1
:10199000F0FE00240CE06900491C5D4A02EB411195
:1019A000085D0121FFF7A8FE781CC7B2601CC4B215
:1019B000102CF0DBBDE8F0812DE9F05F06460F4604
:1019C00090461C46DDF828A04FF0000BE11704EB11
:1019D0005171C910B4EBC10105D12046E11704EBE8
:1019E0005171CD1005E02046E11704EB5171C9108B
:1019F0004D1C3D4615E029463046FFF7BAFEB1467C
:101A00000BE059460BF1010B1AF801000121FFF719
:101A100073FE09F1010000F0FF09C145F1DB681C0C
:101A2000C5B2A542E7DBBDE8F09F08B50121084635
:101A3000FFF7FFF901213748FFF717F801213020A0
:101A4000FFF7F7F94FF4A850ADF8000010208DF81B
:101A5000030003208DF8020069462A48FEF736FF8E
:101A60004FF4A8512748FEF7DCFF4FF40050ADF8C3
:101A7000000069462348FEF729FF4FF40051214832
:101A8000FEF7CFFF0220ADF8000069461E48FEF7C2
:101A90001DFF02212048FEF7C4FF4FF48051194872
:101AA000FEF7BFFF6420FFF76CFC4FF48051154830
:101AB000FEF7B9FF6420FFF764FC4FF48051114832
:101AC000FEF7AFFF0021AE20FFF716FE002108460B
:101AD000FFF712FE00211020FFF70EFE002140202C
:101AE000FFF70AFE00218120FFF706FE0021CF202C
:101AF000FFF702FE0021A120FFF7FEFD0021C82014
:101B00000CE0000000100140001401401A230008FE
:101B10005000002000023000000C0140FFF7ECFDF7
:101B20000021A620FFF7E8FD0021A820FFF7E4FD33
:101B300000213F20FFF7E0FD0021D320FFF7DCFD6F
:101B400000210846FFF7D8FD0021D520FFF7D4FD7E
:101B500000218020FFF7D0FD0021D920FFF7CCFD28
:101B60000021F120FFF7C8FD0021DA20FFF7C4FDB6
:101B700000211220FFF7C0FD0021DB20FFF7BCFD94
:101B800000214020FFF7B8FD00212020FFF7B4FD21
:101B900000210220FFF7B0FD00218D20FFF7ACFDF2
:101BA00000211420FFF7A8FD0021A420FFF7A4FDC9
:101BB0000021A620FFF7A0FD0021AF20FFF79CFD2C
:101BC0000021AF20FFF798FDFFF706FE0021084631
:101BD000FFF7CFFD08BD70470FB4044910B503AA45
:101BE000029800F0D3F810BC5DF814FB4C00002004
:101BF0002DE9F04104460E4600200AE0E168204647
:101C0000884738B3252806D0D4E901219047206AB7
:101C1000401C2062F2E7E168204600278847050063
:101C200018D0A5F14100192802D820354FF40067DB
:101C30003246294620462760FEF7B2FA40B1012815
:101C400004D0F61D26F007060836D7E7361DD5E77F
:101C50002846D9E7206ABDE8F08100002DE9F0416F
:101C60008046002610687529414615A512D0AFF3AD
:101C70000080002803DAC0F1000012A508E0D8F8BF
:101C800000108A0701D510A502E0490704D50FA569
:101C9000012601E0AFF30080002408F1240704E0EE
:101CA00000F086F830313955641C0028F8D13346ED
:101CB0002A4621464046BDE8F04100F00DB800003C
:101CC000000000002D0000002B000000200000009C
:101CD00070477047704770472DE9F0470D4604463E
:101CE0009246994600F124080168880604D5E06907
:101CF00021F01001216000E001200027A84201DD51
:101D0000A0EB0507A16907EB050202EB0300A1EBBD
:101D10000000A0612068C00602D42046AFF3008016
:101D2000002608E0D4E901211AF806009047206A4D
:101D3000401C761C20624E45F4DB2068C0060AD5A4
:101D40002046AFF3008006E0D4E90121302090471F
:101D5000206A401C2062381EA7F10107F4DC07E06E
:101D6000D4E9012118F805009047206A401C206240
:101D7000281EA5F10105F3DC2046AFF300802168A1
:101D80000220090600D40120BDE8F087074B70B59A
:101D90000C467B4400F019F80546204600F028F870
:101DA00010B14FF0FF3070BD284670BD55F6FFFFF3
:101DB0004FF00A01B0FBF1F202FB1101104670472F
:101DC00001694A1C02610878704700B58FB0CDE9FF
:101DD00001310021059105497944CDE903101146EF
:101DE0006846FFF705FF0FB000BD0000E5FFFFFFED
:101DF000C06800F080007047754600F029F8AE46D4
:101E000005006946534620F00700854618B020B506
:101E1000FEF76EFCBDE820404FF000064FF00007D3
:101E20004FF000084FF0000B21F00701AC46ACE882
:101E3000C009ACE8C009ACE8C009ACE8C0098D46EF
:101E400070470446AFF300802046FEF7BDF900005E
:101E500000487047E802002001487047704700BF03
:101E6000EC0200204FF47F0C1CEAD0121EBF1CEACB
:101E7000D11392EA0C0F93EA0C0F00F0858090EAE0
:101E8000010F48BF42F4807240F4000C41F400009E
:101E90002CF07F4120F07F4000B58142A2EB03028D
:101EA0000FF2081CACEB504EC0F100009EF800E0B1
:101EB0004FEA4E0E00FB0EFC38BF49004FEA2C1CC7
:101EC00002F5FA020CFB0EF34FEACE1E4FEA112C7C
:101ED0004FEAC1210EEB635E42EB22420EFB0CFC8B
:101EE0004FEA1C5300FB03114FEA112C4FEA01315A
:101EF0000EFB0CFC4FEADC4C00FB0C11C14228BF6E
:101F000009184CEB03335DF804EB10EB410143EB94
:101F1000C250B2F57C0F38BF704729D512F0F00FD0
:101F20001CBF00F1C04000F0004070470081828378
:101F30008485868788898B8C8D8E8F9192939596D8
:101F400097999A9C9D9FA0A2A3A5A7A8AAACAEB062
:101F5000B2B3B5B7B9BCBEC0C2C5C7C9CCCED1D467
:101F6000D7D9DCDFE2E6E9ECF0F3F7FAFE00000097
:101F70004FEA400C0CF1807CBCF17E4F28BF7047CB
:101F8000B0F1C04000F0B0B890EA010F0CEAD113F4
:101F900048BF42F48072624538BF634507D213F4EC
:101FA0007F0F16D080EA010000F00040704710B5A6
:101FB00000F04DF8097EFC3E00F005B880EA010013
:101FC00000F00040704780EA010000F0004000F09F
:101FD0008BB812F47F0F04BF0248704780EA0100FB
:101FE00000F082B80000C07FC10DD1F19E0206DB77
:101FF0004FEA002343F0004323FA02F07047004207
:1020000007D54FEA4001B1F1FE4F02D24FF0000078
:10201000704710B500F01BF84992248000207047EB
:102020006FEA200070470000B0FA80F310FA03F264
:10203000C3F19D030AD0D90501EB1220530638BF26
:10204000704700F1010008BF20F0010070470EF159
:10205000020E2EF0030E5EF8044B244204D44FEA25
:102060004102B2F17F4F11D84FEA4003B3F17F4FE5
:102070000CD80ED14FEAD07CB2F17F4F0CEB4C0C58
:102080000CF1020C08BF4CEBD17C04E04FF0080CC3
:1020900001E04FEAD17C0CEB4C0324FA03F404F08A
:1020A0000704B4F1040C06D20EEB840CBDE810401A
:1020B0004CF0010C6047DFE80CF0070802024FF01B
:1020C0000040A0F5800010BD0846420018BFD2F1C4
:1020D000807288BF00F0004010BD10B5FFF7BCFE55
:1020E0004FF00001016010BDFF2141EAD050C00552
:1020F00070470000000000000000002F00000000FA
:102100000700070000147F147F1400242A7F2A127E
:10211000006264081323003649552250000005036D
:10212000000000001C224100000041221C0000149D
:10213000083E08140008083E0808000000A06000DF
:10214000000808080808000060600000002010086F
:102150000402003E5149453E0000427F40000042DB
:1021600061514946002141454B31001814127F103E
:10217000002745454539003C4A494930000171096D
:10218000050300364949493600064949291E000021
:1021900036360000000056360000000814224100C8
:1021A00000141414141400004122140800020151F8
:1021B000090600324959513E007C1211127C007F01
:1021C00049494936003E41414122007F4141221C9C
:1021D000007F49494941007F09090901003E414901
:1021E000497A007F0808087F0000417F41000020F5
:1021F00040413F01007F08142241007F40404040A1
:10220000007F020C027F007F0408107F003E4141E6
:10221000413E007F09090906003E4151215E007FD1
:10222000091929460046494949310001017F010148
:10223000003F4040403F001F2040201F003F4038EB
:10224000403F00631408146300070870080700612A
:102250005149454300007F41410000552A552A5508
:10226000000041417F0000040201020400404040A0
:102270004040000001020400002054545478007FC4
:102280004844443800384444442000384444487F9B
:1022900000385454541800087E0901020018A4A400
:1022A000A47C007F080404780000447D40000040C6
:1022B00080847D00007F102844000000417F4000A2
:1022C000007C04180478007C080404780038444436
:1022D000443800FC242424180018242418FC007C12
:1022E0000804040800485454542000043F4440208B
:1022F000003C4040207C001C2040201C003C403022
:10230000403C004428102844001CA0A0A07C0044AD
:1023100064544C44141414141414000000000000FD
:1023200000000000000000000000000000F80000B5
:102330000000000000333000000000100C06100CFC
:102340000600000000000000000040C07840C07897
:102350004000043F04043F040400007088FC08307F
:102360000000001820FF211E0000F008F000E01817
:10237000000000211C031E211E0000F008887000D0
:1023800000001E2123241927211010160E00000022
:1023900000000000000000000000000000E0180441
:1023A0000200000000071820400000020418E000AE
:1023B00000000040201807000000404080F08040EE
:1023C00040000202010F01020200000000F00000C4
:1023D00000000101011F01010100000000000000D8
:1023E000000080B07000000000000000000000004D
:1023F00000000001010101010101000000000000D6
:10240000000000303000000000000000000080608C
:102410001804006018060100000000E01008081011
:10242000E000000F102020100F00001010F8000036
:1024300000000020203F20200000007008080888CD
:10244000700000302824222130000030088888489D
:1024500030000018202020110E000000C02010F8CD
:10246000000000070424243F240000F8088888089E
:1024700008000019212020110E0000E010888818A3
:102480000000000F112020110E0000380808C83885
:1024900008000000003F0000000000708808088865
:1024A0007000001C222121221C0000E010080810EE
:1024B000E0000000312222110F00000000C0C00027
:1024C000000000000030300000000000008000002C
:1024D000000000008060000000000000804020102C
:1024E0000800000102040810200040404040404025
:1024F0004000040404040404040000081020408088
:1025000000000020100804020100007048080808BC
:10251000F0000000003036010000C030C828E8108C
:10252000E0000718272423140B000000C038E00047
:102530000000203C23020227382008F88888887091
:102540000000203F202020110E00C030080808089D
:102550003800071820202010080008F80808081084
:10256000E000203F202020100F0008F88888E808AD
:102570001000203F20202320180008F88888E80851
:102580001000203F200003000000C0300808083879
:10259000000007182020221E020008F8080000088A
:1025A000F808203F210101213F20000808F8080811
:1025B00000000020203F2020000000000808F8084C
:1025C0000800C08080807F00000008F888C02818BC
:1025D0000800203F20012638200008F808000000ED
:1025E0000000203F20202020300008F8F800F8F8F4
:1025F0000800203F003F003F200008F830C00008DE
:10260000F808203F200007183F00E01008080810D5
:10261000E0000F10202020100F0008F8080808081C
:10262000F000203F210101010000E010080808101F
:10263000E0000F18242438504F0008F88888888854
:102640007000203F2000030C30200070880808082C
:1026500038000038202121221C00180808F808083A
:1026600018000000203F2000000008F808000008C3
:10267000F808001F202020201F000878880000C8CC
:102680003808000007380E010000F80800F80008BC
:10269000F800033C0700073C0300081868808068C6
:1026A000180820302C03032C30200838C800C83804
:1026B00008000000203F2000000010080808C8386B
:1026C00008002038262120201800000000FE020209
:1026D00002000000007F40404000000C30C00000BD
:1026E0000000000000010638C00000020202FE00E7
:1026F0000000004040407F00000000000402020291
:1027000004000000000000000000000000000000C5
:1027100000008080808080808080000202040000B1
:1027200000000000000000000000000080808080A9
:1027300000000019242222223F2008F80080800097
:102740000000003F112020110E000000008080805A
:102750000000000E11202020110000000080808861
:10276000F800000E112020103F20000080808080A3
:102770000000001F222222221300008080F088889F
:1027800088180020203F20200000000080808080EA
:102790008000006B94949493600008F8008080801F
:1027A0000000203F210000203F200080989800007A
:1027B00000000020203F20200000000000809898AA
:1027C000000000C08080807F000008F8000080804A
:1027D0008000203F24022D302000000808F800006F
:1027E00000000020203F202000008080808080802A
:1027F0008000203F20003F20003F808000808080BC
:102800000000203F210000203F20000080808080C9
:102810000000001F202020201F00808000808000FA
:10282000000080FFA12020110E00000000808080A9
:102830008000000E112020A0FF808080800080801A
:10284000800020203F212000010000008080808047
:1028500080000033242424241900008080E080803C
:1028600000000000001F2020000080800000008089
:102870008000001F202020103F20808080000080EA
:10288000808000010E3008060100808000800080FA
:1028900080800F300C030C300F000080800080809F
:1028A00080000020312E0E312000808080000080CA
:1028B000808080818E70180601000080808080807A
:1028C00080000021302C2221300000000000807C9C
:1028D000020200000000003F404000000000FF0036
:1028E000000000000000FF0000000002027C8000E9
:1028F00000000040403F000000000006010102020D
:102900000404000000000000000000002C29000862
:1029100000000020D001000028010008FC29000868
:10292000D001002078070000840100089184A24AA9
:102930000400091801020304060708092920692474
:10294000D502040608180B8060F807101010D0FF9D
:10295000D00609113C21080C10FF1008040B08FFD9
:10296000080B040821080E11101014D4545454FC00
:10297000525252D312411809404050575555557F75
:102980000405135750404015FE2222FE0009113F56
:10299000484844444442701780601F42827F2BFFA6
:1029A00049010215FF08081110204080FE0448BDAF
:1029B0005920CF0804027F2112F781172424A4FE96
:1029C000A3221B22CCE8011415080601FF2B0104E9
:1029D000010D10FF0202025D180B1010FF1090088D
:1029E000888888FF040910640010110444827F0164
:0C29F000808040432C10284681800000AD
:04000005080000ED02
:00000001FF
